:1000000045C000004BC0000049C0000047C00000D0
:1000100045C0000043C0000041C000003FC00000D8
:100020003DC000003BC0000039C0000037C00000E8
:1000300035C0000033C0000031C000002FC00000F8
:100040002DC000002BC00000EBC0000027C0000046
:1000500025C0000023C0000021C000001FC0000018
:100060001DC000001BC0000019C0000017C0000028
:1000700015C0000013C0000011C000000FC0000038
:100080000DC000000BC0000009C0000011241FBEFD
:10009000CFEFD0E1DEBFCDBF4DD06CC2B1CF80E895
:1000A00086B986B1876086B9089590E497B997B10B
:1000B000892B87B9369A3699FECF84B195B10895C8
:1000C000EEDF80E0F2DFBC01990F880B990B3BD18A
:1000D00020E030E040EA50E4C6D120E030EC4FE7C9
:1000E00054E4C7D020E030E048EC52E4BCC1D7DF94
:1000F00082E0DBDFBC01990F880B990B24D120E053
:1001000030E040EA50E4AFD120E030EC4FE754E477
:10011000B0C081E090E0019902C080E090E00895D5
:100120009093900089B988E18AB908955D9BFECFCC
:100130008CB908958FEF8ABB1092610084BB84E074
:1001400085BB87E690E0ECDF78940F2EF6E0BF2EBB
:10015000F02D01E014E0B4DF6B017C012FEF81EEA4
:1001600094E0215080409040E1F700C00000BFDFE4
:100170002FEF81EE94E0215080409040E1F700C0E5
:100180000000C7DFEC012FEF81EE94E021508040AA
:100190009040E1F700C0000020E030E040EF51E483
:1001A000C701B6015CD1181664F020E030E040E4ED
:1001B00050E4C701B60153D11816DCF02097F9F0CE
:1001C0001BC020E030E040E450E4C701B60147D155
:1001D00018161CF42197D1F418C020E030E040E458
:1001E00050E4C701B6013BD1181684F0CD2B49F07D
:1001F0000DC0CD2B31F00AC0219741F404C015BBCE
:1002000005C0B5BA03C015BB01C005BB2FEF89E619
:1002100098E1215080409040E1F700C000009BCF62
:100220001F920F920FB60F9211240BB60F922F93BD
:100230003F934F935F936F937F938F939F93AF936E
:10024000BF93EF93FF938CB1805270DFFF91EF91DA
:10025000BF91AF919F918F917F916F915F914F91DE
:100260003F912F910F900BBE0F900FBE0F901F90DC
:1002700018950CD0BAC0B2D040F0A9D030F021F41B
:100280005F3F19F09BC05111E4C09EC0BFD098F3EE
:100290009923C9F35523B1F3951B550BBB27AA2707
:1002A00062177307840738F09F5F5F4F220F331F79
:1002B000441FAA1FA9F333D00E2E3AF0E0E830D045
:1002C00091505040E695001CCAF729D0FE2F27D048
:1002D000660F771F881FBB1F261737074807AB0716
:1002E000B0E809F0BB0B802DBF01FF2793585F4F8B
:1002F0002AF09E3F510568F061C0ABC05F3FECF350
:10030000983EDCF3869577956795B795F7959F5F4F
:10031000C9F7880F911D9695879597F90895E1E0A3
:10032000660F771F881FBB1F621773078407BA0702
:1003300020F0621B730B840BBA0BEE1F88F7E0955D
:100340000895E89409C097FB3EF4909580957095C8
:1003500061957F4F8F4F9F4F9923A9F0F92F96E911
:10036000BB279395F695879577956795B795F11186
:10037000F8CFFAF4BB0F11F460FF1BC06F5F7F4F23
:100380008F4F9F4F16C0882311F096E911C0772335
:1003900021F09EE8872F762F05C0662371F096E83E
:1003A000862F70E060E02AF09A95660F771F881F0D
:1003B000DAF7880F9695879597F9089597F99F67CB
:1003C00080E870E060E008959FEF80EC08950024DD
:1003D0000A941616170618060906089500240A94AA
:1003E00012161306140605060895092E0394000C30
:1003F00011F4882352F0BB0F40F4BF2B11F460FFBF
:1004000004C06F5F7F4F8F4F9F4F089557FD9058E7
:10041000440F551F59F05F3F71F04795880F97FBC8
:10042000991F61F09F3F79F0879508951216130682
:100430001406551FF2CF4695F1DF08C016161706B1
:100440001806991FF1CF86957105610508940895E6
:10045000E894BB2766277727CB0197F9089566D0E4
:1004600008F48FEF08950BD0C0CFB1DF28F0B6DFCE
:1004700018F0952309F0A2CFA7CF1124EACFC6DF49
:10048000A0F3959FD1F3950F50E0551F629FF001A7
:10049000729FBB27F00DB11D639FAA27F00DB11D00
:1004A000AA1F649F6627B00DA11D661F829F222789
:1004B000B00DA11D621F739FB00DA11D621F839F10
:1004C000A00D611D221F749F3327A00D611D231FE6
:1004D000849F600D211D822F762F6A2F11249F5734
:1004E00050408AF0E1F088234AF0EE0FFF1FBB1F57
:1004F000661F771F881F91505040A9F79E3F5105F6
:1005000070F05CCFA6CF5F3FECF3983EDCF38695AE
:1005100077956795B795F795E7959F5FC1F7FE2BA0
:10052000880F911D9695879597F90895990F000862
:10053000550FAA0BE0E8FEEF16161706E807F907B5
:10054000C0F012161306E407F50798F0621B730B50
:10055000840B950B39F40A2661F0232B242B252BD1
:1005600021F408950A2609F4A140A6958FEF811D74
:08057000811D0895F894FFCFEE
:00000001FF
