:1000000045C0000060C000005EC000005CC0000091
:100010005AC0000058C0000056C0000054C0000084
:1000200052C0000050C000004EC000004CC0000094
:100030004AC0000048C0000046C0000044C00000A4
:1000400042C0000040C00000C9C200003CC0000027
:100050003AC0000038C0000036C0000034C00000C4
:1000600032C0000030C000002EC000002CC00000D4
:100070002AC0000028C0000026C0000024C00000E4
:1000800022C0000020C000001EC0000011241FBEBE
:10009000CFEFD0E1DEBFCDBF11E0A0E0B1E0E4E101
:1000A000FFE000E00BBF02C007900D92AA36B10737
:1000B000D9F721E0AAE6B1E001C01D92A937B20745
:1000C000E1F768D125C79CCF80E886B986B1876003
:1000D00086B9089590E497B997B1892B87B9369A74
:1000E0003699FECF84B195B10895EEDF80E0F2DF5E
:1000F000BC01990F880B990B10D320E030E040EA47
:1001000050E49BD320E030EC4FE754E49CD220E055
:1001100030E048EC52E491C3D7DF82E0DBDFBC0182
:10012000990F880B990BF9D220E030E040EA50E4B7
:1001300084D320E030EC4FE754E485C281E090E0C6
:10014000019902C080E090E008959093900089B9F1
:1001500088E18AB908955D9BFECF8CB90895CF934D
:10016000DF93EC018881882329F02196F4DF8991BF
:100170008111FCCFDF91CF910895982F907F9BBB89
:10018000D898D998DA9A25E02A95F1F70000DA98FC
:1001900020E1829FC00111248BBBD898D998DA9AAC
:1001A00085E08A95F1F70000DA9808952FEF83EF44
:1001B00091E0215080409040E1F700C0000088E2CB
:1001C000DCDF87EC90E00197F1F700C000008CE0E5
:1001D000D4DF87EC90E00197F1F700C0000081E0E8
:1001E000CCDF8FE39FE10197F1F700C0000086E0CC
:1001F000C4DF87EC90E00197F1F700C0000008959C
:10020000EFE8F1E03197F1F700C00000982F907F00
:100210009BBBD89AD998DA9AF5E0FA95F1F70000E5
:10022000DA9820E1829FC00111248BBBD89AD9981B
:10023000DA9A85E08A95F1F70000DA980895CF936D
:10024000DF93EC018881882329F02196D9DF8991F9
:100250008111FCCFDF91CF91089582E88FBD8BE1B2
:100260008EBD87E893E197BD86BD84EF91E09BBD8D
:100270008ABD1DBC1CBC08958AEF90E09BBD8ABD61
:100280002FEF81EE94E0215080409040E1F700C0D4
:100290000000089584EF91E09BBD8ABD2FEF81EEB1
:1002A00094E0215080409040E1F700C000000895A4
:1002B00010927301109272011092710110927001EC
:1002C00064E071E084E791E03FD3892B29F4109238
:1002D0006F0110926E0156C069E071E084E791E011
:1002E00033D3892B39F481E090E090936F018093B0
:1002F0006E0107C080916E0190916F01019709F026
:1003000041C06EE071E084E791E01ED3892B79F45F
:1003100081E090E020916C0130916D01232B11F070
:1003200080E090E090936D0180936C012BC063E1BD
:1003300071E084E791E008D3892B79F481E090E0C3
:100340002091020130910301232B11F080E090E015
:10035000909303018093020115C068E171E084E786
:1003600091E0F2D2892B71F481E090E020910001BC
:1003700030910101232B11F080E090E09093010176
:100380008093000185E0E4E7F1E0DF011D928A95AA
:10039000E9F70895CF93DF93CDB7DEB7E4970FB6B3
:1003A000F894DEBF0FBECDBF8FEF8ABB1BBA87BBF1
:1003B00018BA84BB84E085BB1092610087E690E0A8
:1003C000C4DE7894F3DE49DF85E0E4E7F1E0DF01A5
:1003D0001D928A95E9F70F2EFDE16F2EF1E07F2E39
:1003E000F02DCE0101967C010F2EF6E44F2EF1E0A8
:1003F0005F2EF02D88248394912C80917001909130
:100400007101019709F454DF70DEA62EB72EC82EB5
:10041000D92E9FEFA1EEB4E09150A040B040E1F79B
:1004200000C0000079DE6BAB7CAB282E392E2FEF9D
:1004300081EE94E0215080409040E1F700C0000040
:100440007DDE8C01AFEFB1EE24E0A150B040204042
:10045000E1F700C000001F938F933F922F928CA969
:100460008F939BA99F93DF92CF92BF92AF927F927F
:100470006F92FF92EF9271D2C70171DE1F930F93BB
:1004800020E030E040EA51E4BBA9ACA96B2F7A2F01
:10049000822D932DD2D19F938F937F936F93DF9271
:1004A000CF92BF92AF925F924F92FF92EF9255D24E
:1004B00081E063DEAFE3BFE11197F1F700C0000018
:1004C00080E85BDEC701BBDE0FB6F894DEBF0FBE6F
:1004D000CDBF0130110511F510926D0110926C0124
:1004E000109203011092020110920101109200017A
:1004F00090926B0180926A011F921F92A8E5B1E071
:10050000BF93AF93FF92EF9228D2C70128DE0F90DE
:100510000F900F900F900F900F9037C020E030E0B9
:1005200040EF51E46A2D7B2D8C2D9D2D82D1181624
:100530005CF020E030E040E450E46A2D7B2D8C2D0F
:100540009D2D77D118168CF490926D0180926C01DC
:100550009092030180920201909201018092000129
:1005600010926B0110926A0110C010926D011092EE
:100570006C0190920301809202019092010180929D
:10058000000110926B0110926A0115BA80916A0104
:1005900090916B01019709F4A89A80916C01909158
:1005A0006D01019709F4A99A8091000190910101D0
:1005B000019709F4AA9A8091020190910301019791
:1005C00011F45ADE01C066DE8FEF99E6A8E1815092
:1005D0009040A040E1F700C000000FCF1F920F92A3
:1005E0000FB60F9211240BB60F922F933F934F9398
:1005F0008F939F93EF93FF934CB1809172019091F1
:1006000073019C012F5F3F4F309373012093720160
:10061000FC01EC58FE4F40832430310531F481E079
:1006200090E09093710180937001FF91EF919F9101
:100630008F914F913F912F910F900BBE0F900FBE56
:100640000F901F9018950CD0BAC0B2D040F0A9D02E
:1006500030F021F45F3F19F09BC05111E4C09EC0FF
:10066000BFD098F39923C9F35523B1F3951B550BCC
:10067000BB27AA2762177307840738F09F5F5F4F75
:10068000220F331F441FAA1FA9F333D00E2E3AF0B6
:10069000E0E830D091505040E695001CCAF729D0D0
:1006A000FE2F27D0660F771F881FBB1F261737071F
:1006B0004807AB07B0E809F0BB0B802DBF01FF274F
:1006C00093585F4F2AF09E3F510568F061C0ABC060
:1006D0005F3FECF3983EDCF3869577956795B79589
:1006E000F7959F5FC9F7880F911D9695879597F9A4
:1006F0000895E1E0660F771F881FBB1F621773071D
:100700008407BA0720F0621B730B840BBA0BEE1F31
:1007100088F7E0950895E89409C097FB3EF490951A
:100720008095709561957F4F8F4F9F4F9923A9F0CA
:10073000F92F96E9BB279395F69587957795679559
:10074000B795F111F8CFFAF4BB0F11F460FF1BC09D
:100750006F5F7F4F8F4F9F4F16C0882311F096E930
:1007600011C0772321F09EE8872F762F05C06623DE
:1007700071F096E8862F70E060E02AF09A95660F97
:10078000771F881FDAF7880F9695879597F9089550
:1007900097F99F6780E870E060E008959FEF80EC34
:1007A000089500240A9416161706180609060895D7
:1007B00000240A9412161306140605060895092E3D
:1007C0000394000C11F4882352F0BB0F40F4BF2BAC
:1007D00011F460FF04C06F5F7F4F8F4F9F4F0895EC
:1007E00057FD9058440F551F59F05F3F71F04795E2
:1007F000880F97FB991F61F09F3F79F087950895C7
:10080000121613061406551FF2CF4695F1DF08C0E5
:10081000161617061806991FF1CF86957105610502
:1008200008940895E894BB2766277727CB0197F9AA
:10083000089566D008F48FEF08950BD0C0CFB1DFD4
:1008400028F0B6DF18F0952309F0A2CFA7CF112426
:10085000EACFC6DFA0F3959FD1F3950F50E0551F67
:10086000629FF001729FBB27F00DB11D639FAA2705
:10087000F00DB11DAA1F649F6627B00DA11D661F54
:10088000829F2227B00DA11D621F739FB00DA11D75
:10089000621F839FA00D611D221F749F3327A00D2F
:1008A000611D231F849F600D211D822F762F6A2FCB
:1008B00011249F5750408AF0E1F088234AF0EE0F50
:1008C000FF1FBB1F661F771F881F91505040A9F75D
:1008D0009E3F510570F05CCFA6CF5F3FECF3983E92
:1008E000DCF3869577956795B795F795E7959F5FC4
:1008F000C1F7FE2B880F911D9695879597F908955E
:10090000990F0008550FAA0BE0E8FEEF1616170620
:10091000E807F907C0F012161306E407F50798F088
:10092000621B730B840B950B39F40A2661F0232BA1
:10093000242B252B21F408950A2609F4A140A6951D
:100940008FEF811D811D0895FB01DC018D910190C8
:1009500080190110D9F3990B08950F931F93CF932A
:10096000DF93CDB7DEB72E970FB6F894DEBF0FBE7C
:10097000CDBF0D891E8986E08C831A8309838FEF92
:100980009FE79E838D83AE01475E5F4F6F89788DB1
:10099000CE01019610D0EF81F885E00FF11F108293
:1009A0002E960FB6F894DEBF0FBECDBFDF91CF916C
:1009B0001F910F9108952F923F924F925F926F92E5
:1009C0007F928F929F92AF92BF92CF92DF92EF92DF
:1009D000FF920F931F93CF93DF93CDB7DEB72B9783
:1009E0000FB6F894DEBF0FBECDBF6C017B018A014C
:1009F000FC0117821682838181FFBFC1CE0101965F
:100A00003C01F6019381F70193FD859193FF81915C
:100A10007F01882309F4ADC1853239F493FD8591B6
:100A200093FF81917F01853221F4B60190E0D6D108
:100A3000E8CF912C212C312CFFE1F315D8F08B322B
:100A400079F038F4803279F08332A1F4232D2061DB
:100A50001DC08D3261F0803369F4232D216016C0F2
:100A6000832D8260382EE32DE4603E2E2AC0F32DC4
:100A7000F8601DC037FC2DC020ED280F2A3040F053
:100A80008E32B9F436FC75C1232D2064322E19C084
:100A900036FE06C08AE0989E200D1124922E11C0C9
:100AA000EAE02E9E200D1124222EF32DF0623F2E1F
:100AB00008C08C3621F4832D8068382E02C0883619
:100AC00041F4F70193FD859193FF81917F0181119D
:100AD000B3CF982F9F7D9554933028F40C5F1F4F10
:100AE0009FE399830DC0833631F0833771F08335EE
:100AF00009F055C020C0F801808189830E5F1F4F27
:100B000088248394912C530112C02801F2E04F0EE7
:100B1000511CF801A080B18036FE03C0692D70E041
:100B200002C06FEF7FEFC5014ED14C018201F32D62
:100B3000FF773F2E15C0280122E0420E511CF8011C
:100B4000A080B18036FE03C0692D70E002C06FEF57
:100B50007FEFC5012DD14C01F32DF0683F2E8201AE
:100B600033FC19C0822D90E088169906A0F4B601D6
:100B700080E290E033D12A94F5CFF50137FC8591DE
:100B800037FE81915F01B60190E028D121102A94AF
:100B900021E0821A91088114910479F7E1C084362A
:100BA00011F0893639F5F80137FE07C0608171818F
:100BB000828193810C5F1F4F08C060817181072E75
:100BC000000C880B990B0E5F1F4FF32DFF763F2E05
:100BD00097FF09C090958095709561957F4F8F4FD5
:100BE0009F4FF0683F2E2AE030E0A30133D1882EDA
:100BF000861844C0853731F4232D2F7EB22E2AE08B
:100C000030E025C0932D997FB92E8F36C1F018F4AE
:100C1000883579F0AEC0803719F0883721F0A9C047
:100C2000E92FE061BE2EB4FE0DC0FB2DF460BF2E97
:100C300009C034FE0AC0292F2660B22E06C028E063
:100C400030E005C020E130E002C020E132E0F801F0
:100C5000B7FE07C060817181828193810C5F1F4F55
:100C600006C06081718180E090E00E5F1F4FA3019C
:100C7000F1D0882E8618FB2DFF773F2E36FE0DC053
:100C8000232D2E7FA22E891458F434FE0BC032FC83
:100C900009C0832D8E7EA82E05C0B82CA32C03C0BE
:100CA000B82C01C0B92CA4FE0FC0FE01E80DF11D47
:100CB0008081803321F49A2D997EA92E09C0A2FE4D
:100CC00006C0B394B39404C08A2D867809F0B39417
:100CD000A3FC10C0A0FE06C0B21480F4280C922C15
:100CE0009B180DC0B21458F4B60180E290E076D0A3
:100CF000B394F8CFB21418F42B1802C0982C212CFE
:100D0000A4FE0FC0B60180E390E068D0A2FE16C03A
:100D1000A1FC03C088E790E002C088E590E0B6013E
:100D20000CC08A2D867851F0A1FE02C08BE201C072
:100D300080E2A7FC8DE2B60190E050D0891430F437
:100D4000B60180E390E04AD09A94F8CF8A94F301F8
:100D5000E80DF11D8081B60190E040D08110F6CF02
:100D6000222009F44ECEB60180E290E037D02A94DA
:100D7000F7CFF6018681978102C08FEF9FEF2B9608
:100D80000FB6F894DEBF0FBECDBFDF91CF911F919C
:100D90000F91FF90EF90DF90CF90BF90AF909F901A
:100DA0008F907F906F905F904F903F902F9008951D
:100DB000FC010590615070400110D8F78095909526
:100DC0008E0F9F1F0895FC0161507040019001102B
:100DD000D8F7809590958E0F9F1F08950F931F93BE
:100DE000CF93DF93FB01238121FD03C08FEF9FEFA2
:100DF0002CC022FF16C046815781248135814217BD
:100E0000530744F4A081B1819D012F5F3F4F31838F
:100E100020838C93268137812F5F3F4F3783268332
:100E200014C08B01EC01FB010084F185E02D0995D4
:100E3000892BE1F6D80116968D919C911797019612
:100E400017969C938E931697CE01DF91CF911F91A9
:100E50000F910895FA01AA27283051F1203181F12C
:100E6000E8946F936E7F6E5F7F4F8F4F9F4FAF4FB2
:100E7000B1E03ED0B4E03CD0670F781F891F9A1FC5
:100E8000A11D680F791F8A1F911DA11D6A0F711D79
:100E9000811D911DA11D20D009F468943F912AE085
:100EA000269F11243019305D3193DEF6CF0108956D
:100EB000462F4770405D4193B3E00FD0C9F7F6CF9E
:100EC000462F4F70405D4A3318F0495D31FD405266
:100ED000419302D0A9F7EACFB4E0A69597958795FC
:100EE00077956795BA95C9F70097610571050895DB
:100EF0009B01AC010A2E0694579547953795279587
:100F0000BA95C9F7620F731F841F951FA01D08951E
:040F1000F894FFCF83
:100F1400010001006175746F007375646F00666190
:100F24006E6D007365726D0072656C610074656D41
:100F340070203A2025332E31662C20676173203AC5
:100F440020252E31662C2066697265203A2025649E
:100F5400202020202000252E3166432020252E31FC
:100F640066252520202564006669726520666972FD
:0A0F7400652066697265202564009F
:00000001FF
