S00A000033302E73726563B7
S113000045C0000061C000005FC000005DC000008A
S11300105BC0000059C0000057C0000055C000007C
S113002053C0000051C000004FC000004DC000008C
S11300304BC0000049C0000047C0000045C000009C
S113004043C0000041C000009BC300003DC000004D
S11300503BC0000039C0000037C0000035C00000BC
S113006033C0000031C000002FC000002DC00000CC
S11300702BC0000029C0000027C0000025C00000DC
S113008023C0000021C000001FC0000011241FBEB7
S1130090CFEFD0E1DEBFCDBF11E0A0E0B1E0E4E6F8
S11300A0F2E100E00BBF02C007900D92A838B1073F
S11300B0D9F721E0A8E8B1E001C01D92AF39B20739
S11300C0E1F7D6D10C9430099BCF889A90982FEF02
S11300D089EF90E0215080409040E1F700C000009B
S11300E0909A089588988099FECF809BFECF80993E
S11300F0FECF089588E090E0809BFECF20EA2A9509
S1130100F1F7809B07C020919401220F2160209376
S1130110940105C020919401220F209394018099A9
S1130120FECF019749F780919401089580E886B93C
S113013086B1876086B9089590E497B997B1892B01
S113014087B9369A3699FECF84B195B10895CF9286
S1130150DF92EF92FF92CF93DF93B7DFC3DFCADF63
S113016080939D01C7DF80939A01C4DF80939C0133
S1130170C1DF80939E01BEDF80939B01C0919C01EF
S1130180D0E060919E0170E090919D0120919A01D0
S113019030E0290F311D2C0F3D1F260F371F90E033
S11301A028173907D9F4072E000C880B990B36D47D
S11301B020E030E040E251E496D36B017C01BE01C3
S11301C0DD0F880B990B2AD49B01AC01C701B60142
S11301D022D3562F472F382F292F04C050E040E058
S11301E030E020E0652F742F832F922FDF91CF9181
S11301F0FF90EF90DF90CF90089598DF80E09CCF40
S1130200089594DF81E098DFBC01990F880B990B66
S113021005D420E030E040EA50E4B4D420E030ECEF
S11302204FE754E460C39093900089B988E98AB990
S113023008955D9BFECF8CB90895CF93DF93EC01B5
S11302408881882329F02196F4DF89918111FCCFDC
S1130250DF91CF910895982F907F9BBBD898D99820
S1130260DA9A25E02A95F1F70000DA9820E1829FD6
S1130270C00111248BBBD898D998DA9A85E08A9565
S1130280F1F70000DA9808952FEF83EF91E0215001
S113029080409040E1F700C0000088E2DCDF87EC9A
S11302A090E00197F1F700C000008CE0D4DF87EC08
S11302B090E00197F1F700C0000081E0CCDF8FE30C
S11302C09FE10197F1F700C0000086E0C4DF87ECEE
S11302D090E00197F1F700C000000895EFE8F1E025
S11302E03197F1F700C00000982F907F9BBBD89AFC
S11302F0D998DA9AF5E0FA95F1F70000DA9820E156
S1130300829FC00111248BBBD89AD998DA9A85E0D0
S11303108A95F1F70000DA980895CF93DF93EC0102
S11303208881882329F02196D9DF89918111FCCF16
S1130330DF91CF91089582E88FBD8BE18EBD87E870
S113034093E197BD86BD84EF91E09BBD8ABD1DBC42
S11303501CBC08958AEF90E09BBD8ABD2FEF81EE0F
S113036094E0215080409040E1F700C000000895DF
S113037084EF91E09BBD8ABD2FEF81EE94E0215084
S113038080409040E1F700C0000008951092910170
S11303901092900110928F0110928E0164E071E02E
S11303A085E991E079D4892B29F410928D0110927A
S11303B08C0156C069E071E085E991E06DD4892B28
S11303C039F481E090E090938D0180938C0107C013
S11303D080918C0190918D01019709F041C06EE0EC
S11303E071E085E991E058D4892B79F481E090E0BB
S11303F020918A0130918B01232B11F080E090E051
S113040090938B0180938A012BC063E171E085E9AD
S113041091E042D4892B79F481E090E020910201AB
S113042030910301232B11F080E090E090930301BD
S11304308093020115C068E171E085E991E02CD454
S1130440892B71F481E090E0209100013091010149
S1130450232B11F080E090E0909301018093000140
S113046085E0E5E9F1E0DF011D928A95E9F7089559
S1130470CF93DF93CDB7DEB7C057D1090FB6F89449
S1130480DEBF0FBECDBF8FEF8ABB1BBA87BB18BAC6
S113049084BB84E085BB11BA1092610087E690E0CA
S11304A0C2DE7894F1DE47DF85E0E5E9F1E0DF01C3
S11304B01D928A95E9F7CE0101966C010F2EFDE499
S11304C08F2EF1E09F2EF02DAA24A394B12C8091BD
S11304D08E0190918F01892B09F058DF38DEA9969F
S11304E06CAF7DAF8EAF9FAFA9978BDEAD966CAF2F
S11304F07DAF8EAF9FAFAD9780DEBC01990F880BA7
S1130500990B8CD220E030EC49E754E43BD320E053
S113051030EC4FE754E4E7D1E1966CAF7DAF8EAF9A
S11305209FAFE19748D2562E472E20E030E040E2BC
S113053051E4AD966CAD7DAD8EAD9FADAD9722D33C
S11305403AD2CB016AE070E080D3782E692EAD9662
S11305506CAD7DAD8EAD9FADAD972DD2262E372ED1
S113056020E030E040E251E4A9966CAD7DAD8EAD63
S11305709FADA99707D31FD2CB016AE070E065D382
S1130580F82EE92EA9966CAD7DAD8EAD9FADA997E1
S113059012D2162F072F4F925F926F927F923F9243
S11305A02F92EF92FF927F936F93ADE1B1E0BF93EF
S11305B0AF93DF92CF9279D3C6013FDE80E84BDE62
S11305C085ED8A95F1F70000EF92FF920F931F9348
S11305D0A6E4B1E0BF93AF93DF92CF9266D3C60196
S11305E09CDE8FED7BDE4F925F926F927F923F9203
S11305F02F929F928F92DF92CF9257D30FB6F89497
S1130600DEBF0FBECDBFC60188DE80918C01909104
S11306108D01892B09F08BC020E030E04FE254E4D7
S1130620E1966CAD7DAD8EAD9FADE19758D1882339
S11306301CF510928B0110928A0110920301109202
S113064002011092010110920001B0928901A0925E
S113065088018AE0ECE5F1E0D60101900D928A95DB
S1130660E1F7C601EADD80ECF6DD95ED9A95F1F748
S11306700000C60152DE5BC020E030E040EF51E4F0
S1130680A9966CAD7DAD8EAD9FADA99777D21816A6
S11306906CF020E030E040EC5FE3AD966CAD7DADF6
S11306A08EAD9FADAD976AD218160CF5B0928B0142
S11306B0A0928A01B0920301A0920201B0920101BA
S11306C0A0920001109289011092880181E1E6E66E
S11306D0F1E0D60101900D928A95E1F780ECBBDD43
S11306E0A5EDAA95F1F70000C60117DE20C010920F
S11306F08B0110928A01B0920301A0920201B09280
S11307000101A0920001109289011092880181E1F7
S1130710E7E7F1E0D60101900D928A95E1F780ECCC
S11307209ADDB5EDBA95F1F70000C601F6DD15BA0C
S11307308091880190918901019709F4A89A809188
S11307408A0190918B01019709F4A99A8091000183
S113075090910101019709F4AA9A80910201909164
S11307600301019711F4F6DD01C002DE2FEF8BE7E0
S113077092E9215080409040E1F700C00000A7CEEC
S11307801F920F920FB60F9211240BB60F922F9354
S11307903F934F935F938F939F93EF93FF938CB10A
S11307A0823039F481E090E0909393018093920138
S11307B022C0833059F4109293011092920181E087
S11307C090E090938F0180938E0115C02091920147
S11307D030919301232B79F0209190013091910174
S11307E0A9014F5F5F4F5093910140939001F9012C
S11307F0EB56FE4F8083FF91EF919F918F915F9114
S11308004F913F912F910F900BBE0F900FBE0F9001
S11308101F9018955058BB27AA270ED075C166D1D2
S113082030F06BD120F031F49F3F11F41EF45BC122
S11308300EF4E095E7FB51C1E92F77D180F3BA17A5
S1130840620773078407950718F071F49EF58FC14A
S11308500EF4E0950B2EBA2FA02D0B01B9019001D7
S11308600C01CA01A0011124FF27591B99F0593F1B
S113087050F4503E68F11A16F040A22F232F342F63
S11308804427585FF3CF469537952795A795F040B1
S11308905395C9F77EF41F16BA0B620B730B840BC6
S11308A0BAF09150A1F0FF0FBB1F661F771F881F7E
S11308B0C2F70EC0BA0F621F731F841F48F48795D6
S11308C077956795B795F7959E3F08F0B3CF9395C5
S11308D0880F08F09927EE0F979587950895D9D03A
S11308E008F481E008950CD00FC107D140F0FED088
S11308F030F021F45F3F19F0F0C0511139C1F3C059
S113090014D198F39923C9F35523B1F3951B550BCF
S1130910BB27AA2762177307840738F09F5F5F4FCE
S1130920220F331F441FAA1FA9F333D00E2E3AF00F
S1130930E0E830D091505040E695001CCAF729D029
S1130940FE2F27D0660F771F881FBB1F2617370778
S11309504807AB07B0E809F0BB0B802DBF01FF27A8
S113096093585F4F2AF09E3F510568F0B6C000C10E
S11309705F3FECF3983EDCF3869577956795B795E2
S1130980F7959F5FC9F7880F911D9695879597F9FD
S11309900895E1E0660F771F881FBB1F6217730776
S11309A08407BA0720F0621B730B840BBA0BEE1F8B
S11309B088F7E095089504D06894B111D9C00895DA
S11309C0BCD088F09F5790F0B92F9927B751A0F069
S11309D0D1F0660F771F881F991F1AF0BA95C9F7CF
S11309E012C0B13081F0C3D0B1E00895C0C0672F08
S11309F0782F8827B85F39F0B93FCCF3869577957F
S1130A006795B395D9F73EF4909580957095619567
S1130A107F4F8F4F9F4F0895E89409C097FB3EF492
S1130A2090958095709561957F4F8F4F9F4F992337
S1130A30A9F0F92F96E9BB279395F69587957795B5
S1130A406795B795F111F8CFFAF4BB0F11F460FF75
S1130A501BC06F5F7F4F8F4F9F4F16C0882311F0CD
S1130A6096E911C0772321F09EE8872F762F05C0E1
S1130A70662371F096E8862F70E060E02AF09A957C
S1130A80660F771F881FDAF7880F9695879597F971
S1130A900895990F0008550FAA0BE0E8FEEF16160B
S1130AA01706E807F907C0F012161306E407F5075E
S1130AB098F0621B730B840B950B39F40A2661F0D2
S1130AC0232B242B252B21F408950A2609F4A14075
S1130AD0A6958FEF811D811D089597F99F6780E882
S1130AE070E060E008959FEF80EC089500240A947C
S1130AF01616170618060906089500240A941216F5
S1130B001306140605060895092E0394000C11F427
S1130B10882352F0BB0F40F4BF2B11F460FF04C0D4
S1130B206F5F7F4F8F4F9F4F089557FD9058440F2D
S1130B30551F59F05F3F71F04795880F97FB991F38
S1130B4061F09F3F79F087950895121613061406F5
S1130B50551FF2CF4695F1DF08C016161706180682
S1130B60991FF1CF86957105610508940895E8945D
S1130B70BB2766277727CB0197F908958ADF08F406
S1130B808FEF08950BD0C0CFB1DF28F0B6DF18F097
S1130B90952309F0A2CFA7CF1124EACFC6DFA0F393
S1130BA0959FD1F3950F50E0551F629FF001729FFE
S1130BB0BB27F00DB11D639FAA27F00DB11DAA1F1D
S1130BC0649F6627B00DA11D661F829F2227B00D6A
S1130BD0A11D621F739FB00DA11D621F839FA00DF5
S1130BE0611D221F749F3327A00D611D231F849F45
S1130BF0600D211D822F762F6A2F11249F5750409C
S1130C008AF0E1F088234AF0EE0FFF1FBB1F661F36
S1130C10771F881F91505040A9F79E3F510570F0EF
S1130C205CCFA6CF5F3FECF3983EDCF386957795D7
S1130C306795B795F795E7959F5FC1F7FE2B880FEA
S1130C40911D9695879597F9089597FB072E16F4AD
S1130C50009406D077FD08D00BD007FC05D03EF4F5
S1130C60909581959F4F0895709561957F4F089554
S1130C70AA1BBB1B51E107C0AA1FBB1FA617B707BE
S1130C8010F0A61BB70B881F991F5A95A9F78095DA
S1130C909095BC01CD010895FB01DC018D9101907B
S1130CA080190110D9F3990B08950F931F93CF93D3
S1130CB0DF93CDB7DEB72E970FB6F894DEBF0FBE25
S1130CC0CDBF0D891E8986E08C831A8309838FEF3B
S1130CD09FE79E838D83AE01475E5F4F6F89788D5A
S1130CE0CE01019610D0EF81F885E00FF11F10823C
S1130CF02E960FB6F894DEBF0FBECDBFDF91CF9115
S1130D001F910F9108952F923F924F925F926F928D
S1130D107F928F929F92AF92BF92CF92DF92EF9287
S1130D20FF920F931F93CF93DF93CDB7DEB72B972B
S1130D300FB6F894DEBF0FBECDBF6C017B018A01F4
S1130D40FC0117821682838181FFBFC1CE01019607
S1130D503C01F6019381F70193FD859193FF819105
S1130D607F01882309F4ADC1853239F493FD85915F
S1130D7093FF81917F01853221F4B60190E0D6D1B1
S1130D80E8CF912C212C312CFFE1F315D8F08B32D4
S1130D9079F038F4803279F08332A1F4232D206184
S1130DA01DC08D3261F0803369F4232D216016C09B
S1130DB0832D8260382EE32DE4603E2E2AC0F32D6D
S1130DC0F8601DC037FC2DC020ED280F2A3040F0FC
S1130DD08E32B9F436FC75C1232D2064322E19C02D
S1130DE036FE06C08AE0989E200D1124922E11C072
S1130DF0EAE02E9E200D1124222EF32DF0623F2EC8
S1130E0008C08C3621F4832D8068382E02C08836C1
S1130E1041F4F70193FD859193FF81917F01811145
S1130E20B3CF982F9F7D9554933028F40C5F1F4FB8
S1130E309FE399830DC0833631F0833771F0833596
S1130E4009F055C020C0F801808189830E5F1F4FCF
S1130E5088248394912C530112C02801F2E04F0E90
S1130E60511CF801A080B18036FE03C0692D70E0EA
S1130E7002C06FEF7FEFC5014ED14C018201F32D0B
S1130E80FF773F2E15C0280122E0420E511CF801C5
S1130E90A080B18036FE03C0692D70E002C06FEF00
S1130EA07FEFC5012DD14C01F32DF0683F2E820157
S1130EB033FC19C0822D90E088169906A0F4B6017F
S1130EC080E290E033D12A94F5CFF50137FC859187
S1130ED037FE81915F01B60190E028D121102A9458
S1130EE021E0821A91088114910479F7E1C08436D3
S1130EF011F0893639F5F80137FE07C06081718138
S1130F00828193810C5F1F4F08C060817181072E1D
S1130F10000C880B990B0E5F1F4FF32DFF763F2EAD
S1130F2097FF09C090958095709561957F4F8F4F7D
S1130F309F4FF0683F2E2AE030E0A30133D1882E82
S1130F40861844C0853731F4232D2F7EB22E2AE033
S1130F5030E025C0932D997FB92E8F36C1F018F457
S1130F60883579F0AEC0803719F0883721F0A9C0F0
S1130F70E92FE061BE2EB4FE0DC0FB2DF460BF2E40
S1130F8009C034FE0AC0292F2660B22E06C028E00C
S1130F9030E005C020E130E002C020E132E0F80199
S1130FA0B7FE07C060817181828193810C5F1F4FFE
S1130FB006C06081718180E090E00E5F1F4FA30145
S1130FC0F1D0882E8618FB2DFF773F2E36FE0DC0FC
S1130FD0232D2E7FA22E891458F434FE0BC032FC2C
S1130FE009C0832D8E7EA82E05C0B82CA32C03C067
S1130FF0B82C01C0B92CA4FE0FC0FE01E80DF11DF0
S11310008081803321F49A2D997EA92E09C0A2FEF5
S113101006C0B394B39404C08A2D867809F0B394BF
S1131020A3FC10C0A0FE06C0B21480F4280C922CBD
S11310309B180DC0B21458F4B60180E290E076D04B
S1131040B394F8CFB21418F42B1802C0982C212CA6
S1131050A4FE0FC0B60180E390E068D0A2FE16C0E3
S1131060A1FC03C088E790E002C088E590E0B601E7
S11310700CC08A2D867851F0A1FE02C08BE201C01B
S113108080E2A7FC8DE2B60190E050D0891430F4E0
S1131090B60180E390E04AD09A94F8CF8A94F301A1
S11310A0E80DF11D8081B60190E040D08110F6CFAB
S11310B0222009F44ECEB60180E290E037D02A9483
S11310C0F7CFF6018681978102C08FEF9FEF2B96B1
S11310D00FB6F894DEBF0FBECDBFDF91CF911F9145
S11310E00F91FF90EF90DF90CF90BF90AF909F90C3
S11310F08F907F906F905F904F903F902F900895C6
S1131100FC010590615070400110D8F780959095CE
S11311108E0F9F1F0895FC016150704001900110D3
S1131120D8F7809590958E0F9F1F08950F931F9366
S1131130CF93DF93FB01238121FD03C08FEF9FEF4A
S11311402CC022FF16C04681578124813581421765
S1131150530744F4A081B1819D012F5F3F4F318338
S113116020838C93268137812F5F3F4F37832683DB
S113117014C08B01EC01FB010084F185E02D09957D
S1131180892BE1F6D80116968D919C9117970196BB
S113119017969C938E931697CE01DF91CF911F9152
S11311A00F910895FA01AA27283051F1203181F1D5
S11311B0E8946F936E7F6E5F7F4F8F4F9F4FAF4F5B
S11311C0B1E03ED0B4E03CD0670F781F891F9A1F6E
S11311D0A11D680F791F8A1F911DA11D6A0F711D22
S11311E0811D911DA11D20D009F468943F912AE02E
S11311F0269F11243019305D3193DEF6CF01089516
S1131200462F4770405D4193B3E00FD0C9F7F6CF46
S1131210462F4F70405D4A3318F0495D31FD40520E
S1131220419302D0A9F7EACFB4E0A69597958795A4
S113123077956795BA95C9F7009761057105089583
S11312409B01AC010A2E069457954795379527952F
S1131250BA95C9F7620F731F841F951FA01D0895C7
S1071260F894FFCF2C
S1131264010001006175746F007375646F00666139
S11312746E6D007365726D0072656C610074656DEA
S113128470203A202532642E2531642C2067617342
S1131294203A2025642E25642C2066697265203A40
S11312A42025336420002532642E25640043202540
S11312B4642E25642525202533642000666972651F
S11312C420666972650066616E206F6E202020209E
S11312D42020202020200020202020202020202026
S10B12E420202020202020001E
S9030000FC
